{
  "_format": "hh-sol-artifact-1",
  "contractName": "CointoolNFT",
  "sourceName": "contracts/CointoolNFT.sol",
  "abi": [
    {
      "inputs": [],
      "stateMutability": "nonpayable",
      "type": "constructor"
    },
    {
      "anonymous": false,
      "inputs": [
        {
          "indexed": true,
          "internalType": "address",
          "name": "owner",
          "type": "address"
        },
        {
          "indexed": true,
          "internalType": "address",
          "name": "approved",
          "type": "address"
        },
        {
          "indexed": true,
          "internalType": "uint256",
          "name": "tokenId",
          "type": "uint256"
        }
      ],
      "name": "Approval",
      "type": "event"
    },
    {
      "anonymous": false,
      "inputs": [
        {
          "indexed": true,
          "internalType": "address",
          "name": "owner",
          "type": "address"
        },
        {
          "indexed": true,
          "internalType": "address",
          "name": "operator",
          "type": "address"
        },
        {
          "indexed": false,
          "internalType": "bool",
          "name": "approved",
          "type": "bool"
        }
      ],
      "name": "ApprovalForAll",
      "type": "event"
    },
    {
      "anonymous": false,
      "inputs": [
        {
          "indexed": false,
          "internalType": "string",
          "name": "cover",
          "type": "string"
        }
      ],
      "name": "CoverUpdated",
      "type": "event"
    },
    {
      "anonymous": false,
      "inputs": [
        {
          "indexed": false,
          "internalType": "uint256",
          "name": "price",
          "type": "uint256"
        }
      ],
      "name": "MintPriceUpdated",
      "type": "event"
    },
    {
      "anonymous": false,
      "inputs": [
        {
          "indexed": true,
          "internalType": "address",
          "name": "previousOwner",
          "type": "address"
        },
        {
          "indexed": true,
          "internalType": "address",
          "name": "newOwner",
          "type": "address"
        }
      ],
      "name": "OwnershipTransferred",
      "type": "event"
    },
    {
      "anonymous": false,
      "inputs": [
        {
          "indexed": false,
          "internalType": "bool",
          "name": "enabled",
          "type": "bool"
        }
      ],
      "name": "PublicMintStatusChanged",
      "type": "event"
    },
    {
      "anonymous": false,
      "inputs": [
        {
          "indexed": true,
          "internalType": "address",
          "name": "from",
          "type": "address"
        },
        {
          "indexed": true,
          "internalType": "address",
          "name": "to",
          "type": "address"
        },
        {
          "indexed": true,
          "internalType": "uint256",
          "name": "tokenId",
          "type": "uint256"
        }
      ],
      "name": "Transfer",
      "type": "event"
    },
    {
      "inputs": [
        {
          "internalType": "address",
          "name": "to",
          "type": "address"
        },
        {
          "internalType": "uint256",
          "name": "tokenId",
          "type": "uint256"
        }
      ],
      "name": "approve",
      "outputs": [],
      "stateMutability": "nonpayable",
      "type": "function"
    },
    {
      "inputs": [
        {
          "internalType": "address",
          "name": "owner",
          "type": "address"
        }
      ],
      "name": "balanceOf",
      "outputs": [
        {
          "internalType": "uint256",
          "name": "",
          "type": "uint256"
        }
      ],
      "stateMutability": "view",
      "type": "function"
    },
    {
      "inputs": [],
      "name": "cover",
      "outputs": [
        {
          "internalType": "string",
          "name": "",
          "type": "string"
        }
      ],
      "stateMutability": "view",
      "type": "function"
    },
    {
      "inputs": [],
      "name": "endTime",
      "outputs": [
        {
          "internalType": "uint256",
          "name": "",
          "type": "uint256"
        }
      ],
      "stateMutability": "view",
      "type": "function"
    },
    {
      "inputs": [
        {
          "internalType": "uint256",
          "name": "tokenId",
          "type": "uint256"
        }
      ],
      "name": "getApproved",
      "outputs": [
        {
          "internalType": "address",
          "name": "",
          "type": "address"
        }
      ],
      "stateMutability": "view",
      "type": "function"
    },
    {
      "inputs": [
        {
          "internalType": "address",
          "name": "owner",
          "type": "address"
        },
        {
          "internalType": "address",
          "name": "operator",
          "type": "address"
        }
      ],
      "name": "isApprovedForAll",
      "outputs": [
        {
          "internalType": "bool",
          "name": "",
          "type": "bool"
        }
      ],
      "stateMutability": "view",
      "type": "function"
    },
    {
      "inputs": [],
      "name": "maxSupply",
      "outputs": [
        {
          "internalType": "uint256",
          "name": "",
          "type": "uint256"
        }
      ],
      "stateMutability": "view",
      "type": "function"
    },
    {
      "inputs": [
        {
          "internalType": "address",
          "name": "to",
          "type": "address"
        }
      ],
      "name": "mint",
      "outputs": [
        {
          "internalType": "uint256",
          "name": "",
          "type": "uint256"
        }
      ],
      "stateMutability": "payable",
      "type": "function"
    },
    {
      "inputs": [],
      "name": "mintPrice",
      "outputs": [
        {
          "internalType": "uint256",
          "name": "",
          "type": "uint256"
        }
      ],
      "stateMutability": "view",
      "type": "function"
    },
    {
      "inputs": [],
      "name": "name",
      "outputs": [
        {
          "internalType": "string",
          "name": "",
          "type": "string"
        }
      ],
      "stateMutability": "view",
      "type": "function"
    },
    {
      "inputs": [],
      "name": "owner",
      "outputs": [
        {
          "internalType": "address",
          "name": "",
          "type": "address"
        }
      ],
      "stateMutability": "view",
      "type": "function"
    },
    {
      "inputs": [
        {
          "internalType": "uint256",
          "name": "tokenId",
          "type": "uint256"
        }
      ],
      "name": "ownerOf",
      "outputs": [
        {
          "internalType": "address",
          "name": "",
          "type": "address"
        }
      ],
      "stateMutability": "view",
      "type": "function"
    },
    {
      "inputs": [],
      "name": "publicMint",
      "outputs": [
        {
          "internalType": "bool",
          "name": "",
          "type": "bool"
        }
      ],
      "stateMutability": "view",
      "type": "function"
    },
    {
      "inputs": [],
      "name": "renounceOwnership",
      "outputs": [],
      "stateMutability": "nonpayable",
      "type": "function"
    },
    {
      "inputs": [
        {
          "internalType": "address",
          "name": "from",
          "type": "address"
        },
        {
          "internalType": "address",
          "name": "to",
          "type": "address"
        },
        {
          "internalType": "uint256",
          "name": "tokenId",
          "type": "uint256"
        }
      ],
      "name": "safeTransferFrom",
      "outputs": [],
      "stateMutability": "nonpayable",
      "type": "function"
    },
    {
      "inputs": [
        {
          "internalType": "address",
          "name": "from",
          "type": "address"
        },
        {
          "internalType": "address",
          "name": "to",
          "type": "address"
        },
        {
          "internalType": "uint256",
          "name": "tokenId",
          "type": "uint256"
        },
        {
          "internalType": "bytes",
          "name": "_data",
          "type": "bytes"
        }
      ],
      "name": "safeTransferFrom",
      "outputs": [],
      "stateMutability": "nonpayable",
      "type": "function"
    },
    {
      "inputs": [
        {
          "internalType": "address",
          "name": "operator",
          "type": "address"
        },
        {
          "internalType": "bool",
          "name": "approved",
          "type": "bool"
        }
      ],
      "name": "setApprovalForAll",
      "outputs": [],
      "stateMutability": "nonpayable",
      "type": "function"
    },
    {
      "inputs": [],
      "name": "startTime",
      "outputs": [
        {
          "internalType": "uint256",
          "name": "",
          "type": "uint256"
        }
      ],
      "stateMutability": "view",
      "type": "function"
    },
    {
      "inputs": [
        {
          "internalType": "bytes4",
          "name": "interfaceId",
          "type": "bytes4"
        }
      ],
      "name": "supportsInterface",
      "outputs": [
        {
          "internalType": "bool",
          "name": "",
          "type": "bool"
        }
      ],
      "stateMutability": "view",
      "type": "function"
    },
    {
      "inputs": [],
      "name": "symbol",
      "outputs": [
        {
          "internalType": "string",
          "name": "",
          "type": "string"
        }
      ],
      "stateMutability": "view",
      "type": "function"
    },
    {
      "inputs": [
        {
          "internalType": "uint256",
          "name": "tokenId",
          "type": "uint256"
        }
      ],
      "name": "tokenURI",
      "outputs": [
        {
          "internalType": "string",
          "name": "",
          "type": "string"
        }
      ],
      "stateMutability": "view",
      "type": "function"
    },
    {
      "inputs": [
        {
          "internalType": "address",
          "name": "from",
          "type": "address"
        },
        {
          "internalType": "address",
          "name": "to",
          "type": "address"
        },
        {
          "internalType": "uint256",
          "name": "tokenId",
          "type": "uint256"
        }
      ],
      "name": "transferFrom",
      "outputs": [],
      "stateMutability": "nonpayable",
      "type": "function"
    },
    {
      "inputs": [
        {
          "internalType": "address",
          "name": "newOwner",
          "type": "address"
        }
      ],
      "name": "transferOwnership",
      "outputs": [],
      "stateMutability": "nonpayable",
      "type": "function"
    },
    {
      "inputs": [
        {
          "internalType": "string",
          "name": "cover_",
          "type": "string"
        }
      ],
      "name": "updateCover",
      "outputs": [],
      "stateMutability": "nonpayable",
      "type": "function"
    },
    {
      "inputs": [
        {
          "internalType": "uint256",
          "name": "price",
          "type": "uint256"
        }
      ],
      "name": "updateMintPrice",
      "outputs": [],
      "stateMutability": "nonpayable",
      "type": "function"
    },
    {
      "inputs": [
        {
          "internalType": "bool",
          "name": "enable",
          "type": "bool"
        }
      ],
      "name": "updatePublicMint",
      "outputs": [],
      "stateMutability": "nonpayable",
      "type": "function"
    },
    {
      "inputs": [],
      "name": "userMaxMint",
      "outputs": [
        {
          "internalType": "uint256",
          "name": "",
          "type": "uint256"
        }
      ],
      "stateMutability": "view",
      "type": "function"
    }
  ],
  "bytecode": "0x6080604052426009556000600a556001600b60006101000a81548160ff0219169083151502179055506000600c556000600d5560405180602001604052806000815250600e908051906020019062000059929190620001fc565b503480156200006757600080fd5b506040518060400160405280600b81526020017f436f696e746f6f6c4e46540000000000000000000000000000000000000000008152506040518060400160405280600381526020017f43465400000000000000000000000000000000000000000000000000000000008152508160009080519060200190620000ec929190620001fc565b50806001908051906020019062000105929190620001fc565b505050620001286200011c6200012e60201b60201c565b6200013660201b60201c565b62000311565b600033905090565b6000600660009054906101000a900473ffffffffffffffffffffffffffffffffffffffff16905081600660006101000a81548173ffffffffffffffffffffffffffffffffffffffff021916908373ffffffffffffffffffffffffffffffffffffffff1602179055508173ffffffffffffffffffffffffffffffffffffffff168173ffffffffffffffffffffffffffffffffffffffff167f8be0079c531659141344cd1fd0a4f28419497f9722a3daafe3b4186f6b6457e060405160405180910390a35050565b8280546200020a90620002ac565b90600052602060002090601f0160209004810192826200022e57600085556200027a565b82601f106200024957805160ff19168380011785556200027a565b828001600101855582156200027a579182015b82811115620002795782518255916020019190600101906200025c565b5b5090506200028991906200028d565b5090565b5b80821115620002a85760008160009055506001016200028e565b5090565b60006002820490506001821680620002c557607f821691505b60208210811415620002dc57620002db620002e2565b5b50919050565b7f4e487b7100000000000000000000000000000000000000000000000000000000600052602260045260246000fd5b6138b180620003216000396000f3fe60806040526004361061019b5760003560e01c80636a627842116100ec578063a22cb4651161008a578063d5abeb0111610064578063d5abeb01146105b8578063e7d931e4146105e3578063e985e9c51461060e578063f2fde38b1461064b5761019b565b8063a22cb46514610529578063b88d4fde14610552578063c87b56dd1461057b5761019b565b806373eb024e116100c657806373eb024e1461047d57806378e97925146104a85780638da5cb5b146104d357806395d89b41146104fe5761019b565b80636a627842146103f957806370a0823114610429578063715018a6146104665761019b565b8063240b6d49116101595780634033de3f116101335780634033de3f1461033f57806342842e0e146103685780636352211e146103915780636817c76c146103ce5761019b565b8063240b6d49146102c057806326092b83146102e95780633197cbb6146103145761019b565b8062728e46146101a057806301ffc9a7146101c957806306fdde0314610206578063081812fc14610231578063095ea7b31461026e57806323b872dd14610297575b600080fd5b3480156101ac57600080fd5b506101c760048036038101906101c291906126e2565b610674565b005b3480156101d557600080fd5b506101f060048036038101906101eb919061264f565b610731565b6040516101fd9190612b8b565b60405180910390f35b34801561021257600080fd5b5061021b610813565b6040516102289190612ba6565b60405180910390f35b34801561023d57600080fd5b50610258600480360381019061025391906126e2565b6108a5565b6040516102659190612b24565b60405180910390f35b34801561027a57600080fd5b50610295600480360381019061029091906125ea565b61092a565b005b3480156102a357600080fd5b506102be60048036038101906102b991906124e4565b610a42565b005b3480156102cc57600080fd5b506102e760048036038101906102e291906126a1565b610aa2565b005b3480156102f557600080fd5b506102fe610b6f565b60405161030b9190612b8b565b60405180910390f35b34801561032057600080fd5b50610329610b82565b6040516103369190612ea8565b60405180910390f35b34801561034b57600080fd5b5061036660048036038101906103619190612626565b610b88565b005b34801561037457600080fd5b5061038f600480360381019061038a91906124e4565b610c58565b005b34801561039d57600080fd5b506103b860048036038101906103b391906126e2565b610c78565b6040516103c59190612b24565b60405180910390f35b3480156103da57600080fd5b506103e3610d2a565b6040516103f09190612ea8565b60405180910390f35b610413600480360381019061040e919061247f565b610d30565b6040516104209190612ea8565b60405180910390f35b34801561043557600080fd5b50610450600480360381019061044b919061247f565b611020565b60405161045d9190612ea8565b60405180910390f35b34801561047257600080fd5b5061047b6110d8565b005b34801561048957600080fd5b50610492611160565b60405161049f9190612ea8565b60405180910390f35b3480156104b457600080fd5b506104bd611166565b6040516104ca9190612ea8565b60405180910390f35b3480156104df57600080fd5b506104e861116c565b6040516104f59190612b24565b60405180910390f35b34801561050a57600080fd5b50610513611196565b6040516105209190612ba6565b60405180910390f35b34801561053557600080fd5b50610550600480360381019061054b91906125ae565b611228565b005b34801561055e57600080fd5b5061057960048036038101906105749190612533565b6113a9565b005b34801561058757600080fd5b506105a2600480360381019061059d91906126e2565b61140b565b6040516105af9190612ba6565b60405180910390f35b3480156105c457600080fd5b506105cd6114b2565b6040516105da9190612ea8565b60405180910390f35b3480156105ef57600080fd5b506105f86114b8565b6040516106059190612ba6565b60405180910390f35b34801561061a57600080fd5b50610635600480360381019061063091906124a8565b611546565b6040516106429190612b8b565b60405180910390f35b34801561065757600080fd5b50610672600480360381019061066d919061247f565b6115da565b005b61067c6116d2565b73ffffffffffffffffffffffffffffffffffffffff1661069a61116c565b73ffffffffffffffffffffffffffffffffffffffff16146106f0576040517f08c379a00000000000000000000000000000000000000000000000000000000081526004016106e790612d88565b60405180910390fd5b806008819055507f525b762709cc2a983aec5ccdfd807a061f993c91090b5bcd7da92ca254976aaa816040516107269190612ea8565b60405180910390a150565b60007f80ac58cd000000000000000000000000000000000000000000000000000000007bffffffffffffffffffffffffffffffffffffffffffffffffffffffff1916827bffffffffffffffffffffffffffffffffffffffffffffffffffffffff191614806107fc57507f5b5e139f000000000000000000000000000000000000000000000000000000007bffffffffffffffffffffffffffffffffffffffffffffffffffffffff1916827bffffffffffffffffffffffffffffffffffffffffffffffffffffffff1916145b8061080c575061080b826116da565b5b9050919050565b606060008054610822906130fe565b80601f016020809104026020016040519081016040528092919081815260200182805461084e906130fe565b801561089b5780601f106108705761010080835404028352916020019161089b565b820191906000526020600020905b81548152906001019060200180831161087e57829003601f168201915b5050505050905090565b60006108b082611744565b6108ef576040517f08c379a00000000000000000000000000000000000000000000000000000000081526004016108e690612d68565b60405180910390fd5b6004600083815260200190815260200160002060009054906101000a900473ffffffffffffffffffffffffffffffffffffffff169050919050565b600061093582610c78565b90508073ffffffffffffffffffffffffffffffffffffffff168373ffffffffffffffffffffffffffffffffffffffff1614156109a6576040517f08c379a000000000000000000000000000000000000000000000000000000000815260040161099d90612e08565b60405180910390fd5b8073ffffffffffffffffffffffffffffffffffffffff166109c56116d2565b73ffffffffffffffffffffffffffffffffffffffff1614806109f457506109f3816109ee6116d2565b611546565b5b610a33576040517f08c379a0000000000000000000000000000000000000000000000000000000008152600401610a2a90612cc8565b60405180910390fd5b610a3d83836117b0565b505050565b610a53610a4d6116d2565b82611869565b610a92576040517f08c379a0000000000000000000000000000000000000000000000000000000008152600401610a8990612e48565b60405180910390fd5b610a9d838383611947565b505050565b610aaa6116d2565b73ffffffffffffffffffffffffffffffffffffffff16610ac861116c565b73ffffffffffffffffffffffffffffffffffffffff1614610b1e576040517f08c379a0000000000000000000000000000000000000000000000000000000008152600401610b1590612d88565b60405180910390fd5b80600e9080519060200190610b349291906122a3565b507f1675d1e8dc313c95cc773172a8d048b262bc4dc71b5ed6dadbee4b899e27d71581604051610b649190612ba6565b60405180910390a150565b600b60009054906101000a900460ff1681565b600a5481565b610b906116d2565b73ffffffffffffffffffffffffffffffffffffffff16610bae61116c565b73ffffffffffffffffffffffffffffffffffffffff1614610c04576040517f08c379a0000000000000000000000000000000000000000000000000000000008152600401610bfb90612d88565b60405180910390fd5b80600b60006101000a81548160ff0219169083151502179055507f696ca93f2d646dcbf31ca7a85da7f825bd3796a6d7baa7321166e324bd25f4db81604051610c4d9190612b8b565b60405180910390a150565b610c73838383604051806020016040528060008152506113a9565b505050565b6000806002600084815260200190815260200160002060009054906101000a900473ffffffffffffffffffffffffffffffffffffffff169050600073ffffffffffffffffffffffffffffffffffffffff168173ffffffffffffffffffffffffffffffffffffffff161415610d21576040517f08c379a0000000000000000000000000000000000000000000000000000000008152600401610d1890612d08565b60405180910390fd5b80915050919050565b60085481565b6000600954421015610d77576040517f08c379a0000000000000000000000000000000000000000000000000000000008152600401610d6e90612e68565b60405180910390fd5b6000600a5414610dc757600a54421115610dc6576040517f08c379a0000000000000000000000000000000000000000000000000000000008152600401610dbd90612e28565b60405180910390fd5b5b600b60009054906101000a900460ff16610e5857610de36116d2565b73ffffffffffffffffffffffffffffffffffffffff16610e0161116c565b73ffffffffffffffffffffffffffffffffffffffff1614610e57576040517f08c379a0000000000000000000000000000000000000000000000000000000008152600401610e4e90612d48565b60405180910390fd5b5b6000600c5414610eb657600c54610e75610e706116d2565b611020565b10610eb5576040517f08c379a0000000000000000000000000000000000000000000000000000000008152600401610eac90612e88565b60405180910390fd5b5b610ebe6116d2565b73ffffffffffffffffffffffffffffffffffffffff16610edc61116c565b73ffffffffffffffffffffffffffffffffffffffff1614610f3c576008543414610f3b576040517f08c379a0000000000000000000000000000000000000000000000000000000008152600401610f3290612c68565b60405180910390fd5b5b6000600c5414610f9a57600c54610f59610f546116d2565b611020565b10610f99576040517f08c379a0000000000000000000000000000000000000000000000000000000008152600401610f9090612c28565b60405180910390fd5b5b6000600d5414610ff257600d54610fb16007611ba3565b10610ff1576040517f08c379a0000000000000000000000000000000000000000000000000000000008152600401610fe890612de8565b60405180910390fd5b5b610ffc6007611bb1565b61100f8261100a6007611ba3565b611bc7565b6110196007611ba3565b9050919050565b60008073ffffffffffffffffffffffffffffffffffffffff168273ffffffffffffffffffffffffffffffffffffffff161415611091576040517f08c379a000000000000000000000000000000000000000000000000000000000815260040161108890612ce8565b60405180910390fd5b600360008373ffffffffffffffffffffffffffffffffffffffff1673ffffffffffffffffffffffffffffffffffffffff168152602001908152602001600020549050919050565b6110e06116d2565b73ffffffffffffffffffffffffffffffffffffffff166110fe61116c565b73ffffffffffffffffffffffffffffffffffffffff1614611154576040517f08c379a000000000000000000000000000000000000000000000000000000000815260040161114b90612d88565b60405180910390fd5b61115e6000611be5565b565b600c5481565b60095481565b6000600660009054906101000a900473ffffffffffffffffffffffffffffffffffffffff16905090565b6060600180546111a5906130fe565b80601f01602080910402602001604051908101604052809291908181526020018280546111d1906130fe565b801561121e5780601f106111f35761010080835404028352916020019161121e565b820191906000526020600020905b81548152906001019060200180831161120157829003601f168201915b5050505050905090565b6112306116d2565b73ffffffffffffffffffffffffffffffffffffffff168273ffffffffffffffffffffffffffffffffffffffff16141561129e576040517f08c379a000000000000000000000000000000000000000000000000000000000815260040161129590612c88565b60405180910390fd5b80600560006112ab6116d2565b73ffffffffffffffffffffffffffffffffffffffff1673ffffffffffffffffffffffffffffffffffffffff16815260200190815260200160002060008473ffffffffffffffffffffffffffffffffffffffff1673ffffffffffffffffffffffffffffffffffffffff16815260200190815260200160002060006101000a81548160ff0219169083151502179055508173ffffffffffffffffffffffffffffffffffffffff166113586116d2565b73ffffffffffffffffffffffffffffffffffffffff167f17307eab39ab6107e8899845ad3d59bd9653f200f220920489ca2b5937696c318360405161139d9190612b8b565b60405180910390a35050565b6113ba6113b46116d2565b83611869565b6113f9576040517f08c379a00000000000000000000000000000000000000000000000000000000081526004016113f090612e48565b60405180910390fd5b61140584848484611cab565b50505050565b606061141682611744565b611455576040517f08c379a000000000000000000000000000000000000000000000000000000000815260040161144c90612dc8565b60405180910390fd5b600061145f611d07565b9050600081511161147f57604051806020016040528060008152506114aa565b8061148984611d1e565b60405160200161149a929190612b00565b6040516020818303038152906040525b915050919050565b600d5481565b600e80546114c5906130fe565b80601f01602080910402602001604051908101604052809291908181526020018280546114f1906130fe565b801561153e5780601f106115135761010080835404028352916020019161153e565b820191906000526020600020905b81548152906001019060200180831161152157829003601f168201915b505050505081565b6000600560008473ffffffffffffffffffffffffffffffffffffffff1673ffffffffffffffffffffffffffffffffffffffff16815260200190815260200160002060008373ffffffffffffffffffffffffffffffffffffffff1673ffffffffffffffffffffffffffffffffffffffff16815260200190815260200160002060009054906101000a900460ff16905092915050565b6115e26116d2565b73ffffffffffffffffffffffffffffffffffffffff1661160061116c565b73ffffffffffffffffffffffffffffffffffffffff1614611656576040517f08c379a000000000000000000000000000000000000000000000000000000000815260040161164d90612d88565b60405180910390fd5b600073ffffffffffffffffffffffffffffffffffffffff168173ffffffffffffffffffffffffffffffffffffffff1614156116c6576040517f08c379a00000000000000000000000000000000000000000000000000000000081526004016116bd90612be8565b60405180910390fd5b6116cf81611be5565b50565b600033905090565b60007f01ffc9a7000000000000000000000000000000000000000000000000000000007bffffffffffffffffffffffffffffffffffffffffffffffffffffffff1916827bffffffffffffffffffffffffffffffffffffffffffffffffffffffff1916149050919050565b60008073ffffffffffffffffffffffffffffffffffffffff166002600084815260200190815260200160002060009054906101000a900473ffffffffffffffffffffffffffffffffffffffff1673ffffffffffffffffffffffffffffffffffffffff1614159050919050565b816004600083815260200190815260200160002060006101000a81548173ffffffffffffffffffffffffffffffffffffffff021916908373ffffffffffffffffffffffffffffffffffffffff160217905550808273ffffffffffffffffffffffffffffffffffffffff1661182383610c78565b73ffffffffffffffffffffffffffffffffffffffff167f8c5be1e5ebec7d5bd14f71427d1e84f3dd0314c0f7b2291e5b200ac8c7c3b92560405160405180910390a45050565b600061187482611744565b6118b3576040517f08c379a00000000000000000000000000000000000000000000000000000000081526004016118aa90612ca8565b60405180910390fd5b60006118be83610c78565b90508073ffffffffffffffffffffffffffffffffffffffff168473ffffffffffffffffffffffffffffffffffffffff16148061192d57508373ffffffffffffffffffffffffffffffffffffffff16611915846108a5565b73ffffffffffffffffffffffffffffffffffffffff16145b8061193e575061193d8185611546565b5b91505092915050565b8273ffffffffffffffffffffffffffffffffffffffff1661196782610c78565b73ffffffffffffffffffffffffffffffffffffffff16146119bd576040517f08c379a00000000000000000000000000000000000000000000000000000000081526004016119b490612da8565b60405180910390fd5b600073ffffffffffffffffffffffffffffffffffffffff168273ffffffffffffffffffffffffffffffffffffffff161415611a2d576040517f08c379a0000000000000000000000000000000000000000000000000000000008152600401611a2490612c48565b60405180910390fd5b611a38838383611ecb565b611a436000826117b0565b6001600360008573ffffffffffffffffffffffffffffffffffffffff1673ffffffffffffffffffffffffffffffffffffffff1681526020019081526020016000206000828254611a939190613014565b925050819055506001600360008473ffffffffffffffffffffffffffffffffffffffff1673ffffffffffffffffffffffffffffffffffffffff1681526020019081526020016000206000828254611aea9190612f8d565b92505081905550816002600083815260200190815260200160002060006101000a81548173ffffffffffffffffffffffffffffffffffffffff021916908373ffffffffffffffffffffffffffffffffffffffff160217905550808273ffffffffffffffffffffffffffffffffffffffff168473ffffffffffffffffffffffffffffffffffffffff167fddf252ad1be2c89b69c2b068fc378daa952ba7f163c4a11628f55a4df523b3ef60405160405180910390a4505050565b600081600001549050919050565b6001816000016000828254019250508190555050565b611be1828260405180602001604052806000815250611ed0565b5050565b6000600660009054906101000a900473ffffffffffffffffffffffffffffffffffffffff16905081600660006101000a81548173ffffffffffffffffffffffffffffffffffffffff021916908373ffffffffffffffffffffffffffffffffffffffff1602179055508173ffffffffffffffffffffffffffffffffffffffff168173ffffffffffffffffffffffffffffffffffffffff167f8be0079c531659141344cd1fd0a4f28419497f9722a3daafe3b4186f6b6457e060405160405180910390a35050565b611cb6848484611947565b611cc284848484611f2b565b611d01576040517f08c379a0000000000000000000000000000000000000000000000000000000008152600401611cf890612bc8565b60405180910390fd5b50505050565b606060405180602001604052806000815250905090565b60606000821415611d66576040518060400160405280600181526020017f30000000000000000000000000000000000000000000000000000000000000008152509050611ec6565b600082905060005b60008214611d98578080611d8190613161565b915050600a82611d919190612fe3565b9150611d6e565b60008167ffffffffffffffff811115611dda577f4e487b7100000000000000000000000000000000000000000000000000000000600052604160045260246000fd5b6040519080825280601f01601f191660200182016040528015611e0c5781602001600182028036833780820191505090505b5090505b60008514611ebf57600182611e259190613014565b9150600a85611e3491906131aa565b6030611e409190612f8d565b60f81b818381518110611e7c577f4e487b7100000000000000000000000000000000000000000000000000000000600052603260045260246000fd5b60200101907effffffffffffffffffffffffffffffffffffffffffffffffffffffffffffff1916908160001a905350600a85611eb89190612fe3565b9450611e10565b8093505050505b919050565b505050565b611eda83836120c2565b611ee76000848484611f2b565b611f26576040517f08c379a0000000000000000000000000000000000000000000000000000000008152600401611f1d90612bc8565b60405180910390fd5b505050565b6000611f4c8473ffffffffffffffffffffffffffffffffffffffff16612290565b156120b5578373ffffffffffffffffffffffffffffffffffffffff1663150b7a02611f756116d2565b8786866040518563ffffffff1660e01b8152600401611f979493929190612b3f565b602060405180830381600087803b158015611fb157600080fd5b505af1925050508015611fe257506040513d601f19601f82011682018060405250810190611fdf9190612678565b60015b612065573d8060008114612012576040519150601f19603f3d011682016040523d82523d6000602084013e612017565b606091505b5060008151141561205d576040517f08c379a000000000000000000000000000000000000000000000000000000000815260040161205490612bc8565b60405180910390fd5b805181602001fd5b63150b7a0260e01b7bffffffffffffffffffffffffffffffffffffffffffffffffffffffff1916817bffffffffffffffffffffffffffffffffffffffffffffffffffffffff1916149150506120ba565b600190505b949350505050565b600073ffffffffffffffffffffffffffffffffffffffff168273ffffffffffffffffffffffffffffffffffffffff161415612132576040517f08c379a000000000000000000000000000000000000000000000000000000000815260040161212990612d28565b60405180910390fd5b61213b81611744565b1561217b576040517f08c379a000000000000000000000000000000000000000000000000000000000815260040161217290612c08565b60405180910390fd5b61218760008383611ecb565b6001600360008473ffffffffffffffffffffffffffffffffffffffff1673ffffffffffffffffffffffffffffffffffffffff16815260200190815260200160002060008282546121d79190612f8d565b92505081905550816002600083815260200190815260200160002060006101000a81548173ffffffffffffffffffffffffffffffffffffffff021916908373ffffffffffffffffffffffffffffffffffffffff160217905550808273ffffffffffffffffffffffffffffffffffffffff16600073ffffffffffffffffffffffffffffffffffffffff167fddf252ad1be2c89b69c2b068fc378daa952ba7f163c4a11628f55a4df523b3ef60405160405180910390a45050565b600080823b905060008111915050919050565b8280546122af906130fe565b90600052602060002090601f0160209004810192826122d15760008555612318565b82601f106122ea57805160ff1916838001178555612318565b82800160010185558215612318579182015b828111156123175782518255916020019190600101906122fc565b5b5090506123259190612329565b5090565b5b8082111561234257600081600090555060010161232a565b5090565b600061235961235484612ee8565b612ec3565b90508281526020810184848401111561237157600080fd5b61237c8482856130bc565b509392505050565b600061239761239284612f19565b612ec3565b9050828152602081018484840111156123af57600080fd5b6123ba8482856130bc565b509392505050565b6000813590506123d18161381f565b92915050565b6000813590506123e681613836565b92915050565b6000813590506123fb8161384d565b92915050565b6000815190506124108161384d565b92915050565b600082601f83011261242757600080fd5b8135612437848260208601612346565b91505092915050565b600082601f83011261245157600080fd5b8135612461848260208601612384565b91505092915050565b60008135905061247981613864565b92915050565b60006020828403121561249157600080fd5b600061249f848285016123c2565b91505092915050565b600080604083850312156124bb57600080fd5b60006124c9858286016123c2565b92505060206124da858286016123c2565b9150509250929050565b6000806000606084860312156124f957600080fd5b6000612507868287016123c2565b9350506020612518868287016123c2565b92505060406125298682870161246a565b9150509250925092565b6000806000806080858703121561254957600080fd5b6000612557878288016123c2565b9450506020612568878288016123c2565b93505060406125798782880161246a565b925050606085013567ffffffffffffffff81111561259657600080fd5b6125a287828801612416565b91505092959194509250565b600080604083850312156125c157600080fd5b60006125cf858286016123c2565b92505060206125e0858286016123d7565b9150509250929050565b600080604083850312156125fd57600080fd5b600061260b858286016123c2565b925050602061261c8582860161246a565b9150509250929050565b60006020828403121561263857600080fd5b6000612646848285016123d7565b91505092915050565b60006020828403121561266157600080fd5b600061266f848285016123ec565b91505092915050565b60006020828403121561268a57600080fd5b600061269884828501612401565b91505092915050565b6000602082840312156126b357600080fd5b600082013567ffffffffffffffff8111156126cd57600080fd5b6126d984828501612440565b91505092915050565b6000602082840312156126f457600080fd5b60006127028482850161246a565b91505092915050565b61271481613048565b82525050565b6127238161305a565b82525050565b600061273482612f4a565b61273e8185612f60565b935061274e8185602086016130cb565b61275781613297565b840191505092915050565b600061276d82612f55565b6127778185612f71565b93506127878185602086016130cb565b61279081613297565b840191505092915050565b60006127a682612f55565b6127b08185612f82565b93506127c08185602086016130cb565b80840191505092915050565b60006127d9603283612f71565b91506127e4826132a8565b604082019050919050565b60006127fc602683612f71565b9150612807826132f7565b604082019050919050565b600061281f601c83612f71565b915061282a82613346565b602082019050919050565b6000612842600e83612f71565b915061284d8261336f565b602082019050919050565b6000612865602483612f71565b915061287082613398565b604082019050919050565b6000612888600f83612f71565b9150612893826133e7565b602082019050919050565b60006128ab601983612f71565b91506128b682613410565b602082019050919050565b60006128ce602c83612f71565b91506128d982613439565b604082019050919050565b60006128f1603883612f71565b91506128fc82613488565b604082019050919050565b6000612914602a83612f71565b915061291f826134d7565b604082019050919050565b6000612937602983612f71565b915061294282613526565b604082019050919050565b600061295a602083612f71565b915061296582613575565b602082019050919050565b600061297d601383612f71565b91506129888261359e565b602082019050919050565b60006129a0602c83612f71565b91506129ab826135c7565b604082019050919050565b60006129c3602083612f71565b91506129ce82613616565b602082019050919050565b60006129e6602983612f71565b91506129f18261363f565b604082019050919050565b6000612a09602f83612f71565b9150612a148261368e565b604082019050919050565b6000612a2c601583612f71565b9150612a37826136dd565b602082019050919050565b6000612a4f602183612f71565b9150612a5a82613706565b604082019050919050565b6000612a72601183612f71565b9150612a7d82613755565b602082019050919050565b6000612a95603183612f71565b9150612aa08261377e565b604082019050919050565b6000612ab8601083612f71565b9150612ac3826137cd565b602082019050919050565b6000612adb601383612f71565b9150612ae6826137f6565b602082019050919050565b612afa816130b2565b82525050565b6000612b0c828561279b565b9150612b18828461279b565b91508190509392505050565b6000602082019050612b39600083018461270b565b92915050565b6000608082019050612b54600083018761270b565b612b61602083018661270b565b612b6e6040830185612af1565b8181036060830152612b808184612729565b905095945050505050565b6000602082019050612ba0600083018461271a565b92915050565b60006020820190508181036000830152612bc08184612762565b905092915050565b60006020820190508181036000830152612be1816127cc565b9050919050565b60006020820190508181036000830152612c01816127ef565b9050919050565b60006020820190508181036000830152612c2181612812565b9050919050565b60006020820190508181036000830152612c4181612835565b9050919050565b60006020820190508181036000830152612c6181612858565b9050919050565b60006020820190508181036000830152612c818161287b565b9050919050565b60006020820190508181036000830152612ca18161289e565b9050919050565b60006020820190508181036000830152612cc1816128c1565b9050919050565b60006020820190508181036000830152612ce1816128e4565b9050919050565b60006020820190508181036000830152612d0181612907565b9050919050565b60006020820190508181036000830152612d218161292a565b9050919050565b60006020820190508181036000830152612d418161294d565b9050919050565b60006020820190508181036000830152612d6181612970565b9050919050565b60006020820190508181036000830152612d8181612993565b9050919050565b60006020820190508181036000830152612da1816129b6565b9050919050565b60006020820190508181036000830152612dc1816129d9565b9050919050565b60006020820190508181036000830152612de1816129fc565b9050919050565b60006020820190508181036000830152612e0181612a1f565b9050919050565b60006020820190508181036000830152612e2181612a42565b9050919050565b60006020820190508181036000830152612e4181612a65565b9050919050565b60006020820190508181036000830152612e6181612a88565b9050919050565b60006020820190508181036000830152612e8181612aab565b9050919050565b60006020820190508181036000830152612ea181612ace565b9050919050565b6000602082019050612ebd6000830184612af1565b92915050565b6000612ecd612ede565b9050612ed98282613130565b919050565b6000604051905090565b600067ffffffffffffffff821115612f0357612f02613268565b5b612f0c82613297565b9050602081019050919050565b600067ffffffffffffffff821115612f3457612f33613268565b5b612f3d82613297565b9050602081019050919050565b600081519050919050565b600081519050919050565b600082825260208201905092915050565b600082825260208201905092915050565b600081905092915050565b6000612f98826130b2565b9150612fa3836130b2565b9250827fffffffffffffffffffffffffffffffffffffffffffffffffffffffffffffffff03821115612fd857612fd76131db565b5b828201905092915050565b6000612fee826130b2565b9150612ff9836130b2565b9250826130095761300861320a565b5b828204905092915050565b600061301f826130b2565b915061302a836130b2565b92508282101561303d5761303c6131db565b5b828203905092915050565b600061305382613092565b9050919050565b60008115159050919050565b60007fffffffff0000000000000000000000000000000000000000000000000000000082169050919050565b600073ffffffffffffffffffffffffffffffffffffffff82169050919050565b6000819050919050565b82818337600083830152505050565b60005b838110156130e95780820151818401526020810190506130ce565b838111156130f8576000848401525b50505050565b6000600282049050600182168061311657607f821691505b6020821081141561312a57613129613239565b5b50919050565b61313982613297565b810181811067ffffffffffffffff8211171561315857613157613268565b5b80604052505050565b600061316c826130b2565b91507fffffffffffffffffffffffffffffffffffffffffffffffffffffffffffffffff82141561319f5761319e6131db565b5b600182019050919050565b60006131b5826130b2565b91506131c0836130b2565b9250826131d0576131cf61320a565b5b828206905092915050565b7f4e487b7100000000000000000000000000000000000000000000000000000000600052601160045260246000fd5b7f4e487b7100000000000000000000000000000000000000000000000000000000600052601260045260246000fd5b7f4e487b7100000000000000000000000000000000000000000000000000000000600052602260045260246000fd5b7f4e487b7100000000000000000000000000000000000000000000000000000000600052604160045260246000fd5b6000601f19601f8301169050919050565b7f4552433732313a207472616e7366657220746f206e6f6e20455243373231526560008201527f63656976657220696d706c656d656e7465720000000000000000000000000000602082015250565b7f4f776e61626c653a206e6577206f776e657220697320746865207a65726f206160008201527f6464726573730000000000000000000000000000000000000000000000000000602082015250565b7f4552433732313a20746f6b656e20616c7265616479206d696e74656400000000600082015250565b7f4c696d6974206578636565646564000000000000000000000000000000000000600082015250565b7f4552433732313a207472616e7366657220746f20746865207a65726f2061646460008201527f7265737300000000000000000000000000000000000000000000000000000000602082015250565b7f4e6f7420656e6f7567682066756e640000000000000000000000000000000000600082015250565b7f4552433732313a20617070726f766520746f2063616c6c657200000000000000600082015250565b7f4552433732313a206f70657261746f7220717565727920666f72206e6f6e657860008201527f697374656e7420746f6b656e0000000000000000000000000000000000000000602082015250565b7f4552433732313a20617070726f76652063616c6c6572206973206e6f74206f7760008201527f6e6572206e6f7220617070726f76656420666f7220616c6c0000000000000000602082015250565b7f4552433732313a2062616c616e636520717565727920666f7220746865207a6560008201527f726f206164647265737300000000000000000000000000000000000000000000602082015250565b7f4552433732313a206f776e657220717565727920666f72206e6f6e657869737460008201527f656e7420746f6b656e0000000000000000000000000000000000000000000000602082015250565b7f4552433732313a206d696e7420746f20746865207a65726f2061646472657373600082015250565b7f4f6e6c792061646d696e2063616e206d696e7400000000000000000000000000600082015250565b7f4552433732313a20617070726f76656420717565727920666f72206e6f6e657860008201527f697374656e7420746f6b656e0000000000000000000000000000000000000000602082015250565b7f4f776e61626c653a2063616c6c6572206973206e6f7420746865206f776e6572600082015250565b7f4552433732313a207472616e73666572206f6620746f6b656e2074686174206960008201527f73206e6f74206f776e0000000000000000000000000000000000000000000000602082015250565b7f4552433732314d657461646174613a2055524920717565727920666f72206e6f60008201527f6e6578697374656e7420746f6b656e0000000000000000000000000000000000602082015250565b7f537570706c79204c696d69742065786365656465640000000000000000000000600082015250565b7f4552433732313a20617070726f76616c20746f2063757272656e74206f776e6560008201527f7200000000000000000000000000000000000000000000000000000000000000602082015250565b7f446561646c696e6520657870697265642e000000000000000000000000000000600082015250565b7f4552433732313a207472616e736665722063616c6c6572206973206e6f74206f60008201527f776e6572206e6f7220617070726f766564000000000000000000000000000000602082015250565b7f4e6f742073746172746564207965742e00000000000000000000000000000000600082015250565b7f4d696e74206c696d697420657863656564656400000000000000000000000000600082015250565b61382881613048565b811461383357600080fd5b50565b61383f8161305a565b811461384a57600080fd5b50565b61385681613066565b811461386157600080fd5b50565b61386d816130b2565b811461387857600080fd5b5056fea2646970667358221220800975d3268b681e4f62bf5c47965455c0a2bfcbb59558f0ba485415bb40557e64736f6c63430008040033",
  "linkReferences": {},
  "deployedLinkReferences": {}
}