{
    "contractName": "MultiSender",
    "abi": [
        {
            "inputs": [
                {
                    "internalType": "address payable",
                    "name": "wallet",
                    "type": "address"
                }
            ],
            "stateMutability": "nonpayable",
            "type": "constructor"
        },
        {
            "anonymous": false,
            "inputs": [
                {
                    "indexed": true,
                    "internalType": "address",
                    "name": "previousOwner",
                    "type": "address"
                },
                {
                    "indexed": true,
                    "internalType": "address",
                    "name": "newOwner",
                    "type": "address"
                }
            ],
            "name": "OwnershipTransferred",
            "type": "event"
        },
        {
            "inputs": [],
            "name": "owner",
            "outputs": [
                {
                    "internalType": "address",
                    "name": "",
                    "type": "address"
                }
            ],
            "stateMutability": "view",
            "type": "function"
        },
        {
            "inputs": [],
            "name": "receiverWallet",
            "outputs": [
                {
                    "internalType": "address payable",
                    "name": "",
                    "type": "address"
                }
            ],
            "stateMutability": "view",
            "type": "function"
        },
        {
            "inputs": [],
            "name": "renounceOwnership",
            "outputs": [],
            "stateMutability": "nonpayable",
            "type": "function"
        },
        {
            "inputs": [
                {
                    "internalType": "address",
                    "name": "_token",
                    "type": "address"
                },
                {
                    "internalType": "address[]",
                    "name": "recipients",
                    "type": "address[]"
                },
                {
                    "internalType": "uint256[]",
                    "name": "amounts",
                    "type": "uint256[]"
                }
            ],
            "name": "send",
            "outputs": [],
            "stateMutability": "payable",
            "type": "function"
        },
        {
            "inputs": [
                {
                    "internalType": "address",
                    "name": "newOwner",
                    "type": "address"
                }
            ],
            "name": "transferOwnership",
            "outputs": [],
            "stateMutability": "nonpayable",
            "type": "function"
        }
    ],
    "bytecode": "608060405234801561001057600080fd5b506040516108ce3803806108ce83398101604081905261002f916100b8565b61003f61003a610064565b610068565b600180546001600160a01b0319166001600160a01b03929092169190911790556100e6565b3390565b600080546001600160a01b038381166001600160a01b0319831681178455604051919092169283917f8be0079c531659141344cd1fd0a4f28419497f9722a3daafe3b4186f6b6457e09190a35050565b6000602082840312156100c9578081fd5b81516001600160a01b03811681146100df578182fd5b9392505050565b6107d9806100f56000396000f3fe60806040526004361061004a5760003560e01c8063677342ab1461004f578063715018a61461007a5780638da5cb5b14610091578063f2fde38b146100a6578063f8129cd2146100c6575b600080fd5b34801561005b57600080fd5b506100646100d9565b6040516100719190610602565b60405180910390f35b34801561008657600080fd5b5061008f6100e8565b005b34801561009d57600080fd5b5061006461013c565b3480156100b257600080fd5b5061008f6100c136600461052b565b61014b565b61008f6100d436600461054c565b6101bc565b6001546001600160a01b031681565b6100f0610472565b6001600160a01b031661010161013c565b6001600160a01b0316146101305760405162461bcd60e51b815260040161012790610725565b60405180910390fd5b61013a6000610476565b565b6000546001600160a01b031690565b610153610472565b6001600160a01b031661016461013c565b6001600160a01b03161461018a5760405162461bcd60e51b815260040161012790610725565b6001600160a01b0381166101b05760405162461bcd60e51b815260040161012790610654565b6101b981610476565b50565b6000662386f26fc1000060648510156101dd5750662386f26fc100006101ff565b6101f48510156101f5575066b1a2bc2ec500006101ff565b50662386f26fc100005b84831461021e5760405162461bcd60e51b81526004016101279061069a565b8034101561023e5760405162461bcd60e51b8152600401610127906106d1565b60005b8581101561028f5784848281811061026957634e487b7160e01b600052603260045260246000fd5b905060200201358361027b919061075a565b92508061028781610772565b915050610241565b50604051636eb1769f60e11b81526000906001600160a01b0389169063dd62ed3e906102c19033903090600401610616565b60206040518083038186803b1580156102d957600080fd5b505afa1580156102ed573d6000803e3d6000fd5b505050506040513d601f19601f8201168201806040525081019061031191906105ea565b9050828110156103335760405162461bcd60e51b8152600401610127906106fc565b60005b8681101561042d57886001600160a01b03166323b872dd338a8a8581811061036e57634e487b7160e01b600052603260045260246000fd5b9050602002016020810190610383919061052b565b8989868181106103a357634e487b7160e01b600052603260045260246000fd5b905060200201356040518463ffffffff1660e01b81526004016103c893929190610630565b602060405180830381600087803b1580156103e257600080fd5b505af11580156103f6573d6000803e3d6000fd5b505050506040513d601f19601f8201168201806040525081019061041a91906105ca565b508061042581610772565b915050610336565b506001546040516001600160a01b03909116903480156108fc02916000818181858888f19350505050158015610467573d6000803e3d6000fd5b505050505050505050565b3390565b600080546001600160a01b038381166001600160a01b0319831681178455604051919092169283917f8be0079c531659141344cd1fd0a4f28419497f9722a3daafe3b4186f6b6457e09190a35050565b80356001600160a01b03811681146104dd57600080fd5b919050565b60008083601f8401126104f3578182fd5b50813567ffffffffffffffff81111561050a578182fd5b602083019150836020808302850101111561052457600080fd5b9250929050565b60006020828403121561053c578081fd5b610545826104c6565b9392505050565b600080600080600060608688031215610563578081fd5b61056c866104c6565b9450602086013567ffffffffffffffff80821115610588578283fd5b61059489838a016104e2565b909650945060408801359150808211156105ac578283fd5b506105b9888289016104e2565b969995985093965092949392505050565b6000602082840312156105db578081fd5b81518015158114610545578182fd5b6000602082840312156105fb578081fd5b5051919050565b6001600160a01b0391909116815260200190565b6001600160a01b0392831681529116602082015260400190565b6001600160a01b039384168152919092166020820152604081019190915260600190565b60208082526026908201527f4f776e61626c653a206e6577206f776e657220697320746865207a65726f206160408201526564647265737360d01b606082015260800190565b6020808252601e908201527f526563697069656e7420616e6420416d6f756e7473206d69736d617463680000604082015260600190565b6020808252601190820152704e6f7420656e6f7567682063686172676560781b604082015260600190565b6020808252600f908201526e139bdd08195b9bdd59da08199d5b99608a1b604082015260600190565b6020808252818101527f4f776e61626c653a2063616c6c6572206973206e6f7420746865206f776e6572604082015260600190565b6000821982111561076d5761076d61078d565b500190565b60006000198214156107865761078661078d565b5060010190565b634e487b7160e01b600052601160045260246000fdfea2646970667358221220926a02ee8381301f73ac2ca013bdc8d4d1b7df2933be4f7534fb875d08d5dd1b64736f6c63430008000033",
    "sourcePath": "h:/Work/Office2/vt-solutions/contracts/MultiSender.sol",
    "compiler": {
        "name": "solc",
        "version": "0.8.0+commit.c7dfd78e"
    },
    "functionHashes": {
        "owner()": "8da5cb5b",
        "receiverWallet()": "677342ab",
        "renounceOwnership()": "715018a6",
        "send(address,address[],uint256[])": "f8129cd2",
        "transferOwnership(address)": "f2fde38b"
    },
    "gasEstimates": {
        "creation": {
            "codeDepositCost": "401800",
            "executionCost": "infinite",
            "totalCost": "infinite"
        },
        "external": {
            "owner()": "1092",
            "receiverWallet()": "1048",
            "renounceOwnership()": "23504",
            "send(address,address[],uint256[])": "infinite",
            "transferOwnership(address)": "23743"
        }
    }
}