{
  "_format": "hh-sol-artifact-1",
  "contractName": "MultiSender",
  "sourceName": "contracts/MultiSender.sol",
  "abi": [
    {
      "inputs": [
        {
          "internalType": "address payable",
          "name": "wallet",
          "type": "address"
        }
      ],
      "stateMutability": "nonpayable",
      "type": "constructor"
    },
    {
      "anonymous": false,
      "inputs": [
        {
          "indexed": true,
          "internalType": "address",
          "name": "previousOwner",
          "type": "address"
        },
        {
          "indexed": true,
          "internalType": "address",
          "name": "newOwner",
          "type": "address"
        }
      ],
      "name": "OwnershipTransferred",
      "type": "event"
    },
    {
      "anonymous": false,
      "inputs": [
        {
          "indexed": false,
          "internalType": "address",
          "name": "_from",
          "type": "address"
        },
        {
          "indexed": false,
          "internalType": "address",
          "name": "_to",
          "type": "address"
        },
        {
          "indexed": false,
          "internalType": "uint256",
          "name": "_amount",
          "type": "uint256"
        }
      ],
      "name": "SendNative",
      "type": "event"
    },
    {
      "anonymous": false,
      "inputs": [
        {
          "indexed": false,
          "internalType": "address",
          "name": "_token",
          "type": "address"
        },
        {
          "indexed": false,
          "internalType": "address",
          "name": "_from",
          "type": "address"
        },
        {
          "indexed": false,
          "internalType": "address",
          "name": "_to",
          "type": "address"
        },
        {
          "indexed": false,
          "internalType": "uint256",
          "name": "_amount",
          "type": "uint256"
        }
      ],
      "name": "SendToken",
      "type": "event"
    },
    {
      "inputs": [],
      "name": "owner",
      "outputs": [
        {
          "internalType": "address",
          "name": "",
          "type": "address"
        }
      ],
      "stateMutability": "view",
      "type": "function"
    },
    {
      "inputs": [],
      "name": "receiverWallet",
      "outputs": [
        {
          "internalType": "address payable",
          "name": "",
          "type": "address"
        }
      ],
      "stateMutability": "view",
      "type": "function"
    },
    {
      "inputs": [],
      "name": "renounceOwnership",
      "outputs": [],
      "stateMutability": "nonpayable",
      "type": "function"
    },
    {
      "inputs": [
        {
          "internalType": "address payable[]",
          "name": "recipients",
          "type": "address[]"
        },
        {
          "internalType": "uint256[]",
          "name": "amounts",
          "type": "uint256[]"
        }
      ],
      "name": "sendNative",
      "outputs": [],
      "stateMutability": "payable",
      "type": "function"
    },
    {
      "inputs": [
        {
          "internalType": "address",
          "name": "_token",
          "type": "address"
        },
        {
          "internalType": "address[]",
          "name": "recipients",
          "type": "address[]"
        },
        {
          "internalType": "uint256[]",
          "name": "amounts",
          "type": "uint256[]"
        }
      ],
      "name": "sendToken",
      "outputs": [],
      "stateMutability": "payable",
      "type": "function"
    },
    {
      "inputs": [
        {
          "internalType": "address",
          "name": "newOwner",
          "type": "address"
        }
      ],
      "name": "transferOwnership",
      "outputs": [],
      "stateMutability": "nonpayable",
      "type": "function"
    }
  ],
  "bytecode": "0x60806040523480156200001157600080fd5b50604051620017f8380380620017f8833981810160405281019062000037919062000182565b620000576200004b6200009f60201b60201c565b620000a760201b60201c565b80600160006101000a81548173ffffffffffffffffffffffffffffffffffffffff021916908373ffffffffffffffffffffffffffffffffffffffff16021790555050620001fc565b600033905090565b60008060009054906101000a900473ffffffffffffffffffffffffffffffffffffffff169050816000806101000a81548173ffffffffffffffffffffffffffffffffffffffff021916908373ffffffffffffffffffffffffffffffffffffffff1602179055508173ffffffffffffffffffffffffffffffffffffffff168173ffffffffffffffffffffffffffffffffffffffff167f8be0079c531659141344cd1fd0a4f28419497f9722a3daafe3b4186f6b6457e060405160405180910390a35050565b6000815190506200017c81620001e2565b92915050565b6000602082840312156200019557600080fd5b6000620001a5848285016200016b565b91505092915050565b6000620001bb82620001c2565b9050919050565b600073ffffffffffffffffffffffffffffffffffffffff82169050919050565b620001ed81620001ae565b8114620001f957600080fd5b50565b6115ec806200020c6000396000f3fe6080604052600436106100555760003560e01c80630a333a0f1461005a578063318adb8b14610076578063677342ab14610092578063715018a6146100bd5780638da5cb5b146100d4578063f2fde38b146100ff575b600080fd5b610074600480360381019061006f9190610e26565b610128565b005b610090600480360381019061008b9190610eaf565b6105ce565b005b34801561009e57600080fd5b506100a7610939565b6040516100b49190611073565b60405180910390f35b3480156100c957600080fd5b506100d261095f565b005b3480156100e057600080fd5b506100e96109e7565b6040516100f69190611058565b60405180910390f35b34801561010b57600080fd5b5061012660048036038101906101219190610dfd565b610a10565b005b600080662386f26fc1000090506000868690501015801561014c5750606486869050105b1561016057662386f26fc100009050610188565b6101f486869050101561017c5766b1a2bc2ec500009050610187565b662386f26fc1000090505b5b8383905086869050146101d0576040517f08c379a00000000000000000000000000000000000000000000000000000000081526004016101c79061118a565b60405180910390fd5b80341015610213576040517f08c379a000000000000000000000000000000000000000000000000000000000815260040161020a906111aa565b60405180910390fd5b60005b868690508110156102815784848281811061025a577f4e487b7100000000000000000000000000000000000000000000000000000000600052603260045260246000fd5b905060200201358361026c9190611298565b92508080610279906113af565b915050610216565b5060008773ffffffffffffffffffffffffffffffffffffffff1663dd62ed3e33306040518363ffffffff1660e01b81526004016102bf92919061108e565b60206040518083038186803b1580156102d757600080fd5b505afa1580156102eb573d6000803e3d6000fd5b505050506040513d601f19601f8201168201806040525081019061030f9190610f44565b905082811015610354576040517f08c379a000000000000000000000000000000000000000000000000000000000815260040161034b906111ca565b60405180910390fd5b60005b8787905081101561055a578873ffffffffffffffffffffffffffffffffffffffff166323b872dd338a8a858181106103b8577f4e487b7100000000000000000000000000000000000000000000000000000000600052603260045260246000fd5b90506020020160208101906103cd9190610dfd565b898986818110610406577f4e487b7100000000000000000000000000000000000000000000000000000000600052603260045260246000fd5b905060200201356040518463ffffffff1660e01b815260040161042b93929190611133565b602060405180830381600087803b15801561044557600080fd5b505af1158015610459573d6000803e3d6000fd5b505050506040513d601f19601f8201168201806040525081019061047d9190610f1b565b507f49b9b5358c9580b3e6c5ee10b8b260c1e64bede87cb8a212e9e20a0b7dc20e5a89338a8a858181106104da577f4e487b7100000000000000000000000000000000000000000000000000000000600052603260045260246000fd5b90506020020160208101906104ef9190610dfd565b898986818110610528577f4e487b7100000000000000000000000000000000000000000000000000000000600052603260045260246000fd5b9050602002013560405161053f94939291906110ee565b60405180910390a18080610552906113af565b915050610357565b50600160009054906101000a900473ffffffffffffffffffffffffffffffffffffffff1673ffffffffffffffffffffffffffffffffffffffff166108fc349081150290604051600060405180830381858888f193505050501580156105c3573d6000803e3d6000fd5b505050505050505050565b600080662386f26fc10000905060008451101580156105ee575060648451105b1561060257662386f26fc100009050610628565b6101f48451101561061c5766b1a2bc2ec500009050610627565b662386f26fc1000090505b5b825184511461066c576040517f08c379a00000000000000000000000000000000000000000000000000000000081526004016106639061118a565b60405180910390fd5b60005b84518110156106d9578381815181106106b1577f4e487b7100000000000000000000000000000000000000000000000000000000600052603260045260246000fd5b6020026020010151836106c49190611298565b925080806106d1906113af565b91505061066f565b5081816106e69190611298565b341015610728576040517f08c379a000000000000000000000000000000000000000000000000000000000815260040161071f906111aa565b60405180910390fd5b60005b84518110156108c95784818151811061076d577f4e487b7100000000000000000000000000000000000000000000000000000000600052603260045260246000fd5b602002602001015173ffffffffffffffffffffffffffffffffffffffff166108fc8583815181106107c7577f4e487b7100000000000000000000000000000000000000000000000000000000600052603260045260246000fd5b60200260200101519081150290604051600060405180830381858888f193505050501580156107fa573d6000803e3d6000fd5b507f582fba42961847e570d5bc6fb9abdfdcfa7d669391c33a17c44d66421341507633868381518110610856577f4e487b7100000000000000000000000000000000000000000000000000000000600052603260045260246000fd5b6020026020010151868481518110610897577f4e487b7100000000000000000000000000000000000000000000000000000000600052603260045260246000fd5b60200260200101516040516108ae939291906110b7565b60405180910390a180806108c1906113af565b91505061072b565b50600160009054906101000a900473ffffffffffffffffffffffffffffffffffffffff1673ffffffffffffffffffffffffffffffffffffffff166108fc829081150290604051600060405180830381858888f19350505050158015610932573d6000803e3d6000fd5b5050505050565b600160009054906101000a900473ffffffffffffffffffffffffffffffffffffffff1681565b610967610b08565b73ffffffffffffffffffffffffffffffffffffffff166109856109e7565b73ffffffffffffffffffffffffffffffffffffffff16146109db576040517f08c379a00000000000000000000000000000000000000000000000000000000081526004016109d2906111ea565b60405180910390fd5b6109e56000610b10565b565b60008060009054906101000a900473ffffffffffffffffffffffffffffffffffffffff16905090565b610a18610b08565b73ffffffffffffffffffffffffffffffffffffffff16610a366109e7565b73ffffffffffffffffffffffffffffffffffffffff1614610a8c576040517f08c379a0000000000000000000000000000000000000000000000000000000008152600401610a83906111ea565b60405180910390fd5b600073ffffffffffffffffffffffffffffffffffffffff168173ffffffffffffffffffffffffffffffffffffffff161415610afc576040517f08c379a0000000000000000000000000000000000000000000000000000000008152600401610af39061116a565b60405180910390fd5b610b0581610b10565b50565b600033905090565b60008060009054906101000a900473ffffffffffffffffffffffffffffffffffffffff169050816000806101000a81548173ffffffffffffffffffffffffffffffffffffffff021916908373ffffffffffffffffffffffffffffffffffffffff1602179055508173ffffffffffffffffffffffffffffffffffffffff168173ffffffffffffffffffffffffffffffffffffffff167f8be0079c531659141344cd1fd0a4f28419497f9722a3daafe3b4186f6b6457e060405160405180910390a35050565b6000610be7610be28461122f565b61120a565b90508083825260208201905082856020860282011115610c0657600080fd5b60005b85811015610c365781610c1c8882610cc1565b845260208401935060208301925050600181019050610c09565b5050509392505050565b6000610c53610c4e8461125b565b61120a565b90508083825260208201905082856020860282011115610c7257600080fd5b60005b85811015610ca25781610c888882610dd3565b845260208401935060208301925050600181019050610c75565b5050509392505050565b600081359050610cbb8161155a565b92915050565b600081359050610cd081611571565b92915050565b60008083601f840112610ce857600080fd5b8235905067ffffffffffffffff811115610d0157600080fd5b602083019150836020820283011115610d1957600080fd5b9250929050565b600082601f830112610d3157600080fd5b8135610d41848260208601610bd4565b91505092915050565b60008083601f840112610d5c57600080fd5b8235905067ffffffffffffffff811115610d7557600080fd5b602083019150836020820283011115610d8d57600080fd5b9250929050565b600082601f830112610da557600080fd5b8135610db5848260208601610c40565b91505092915050565b600081519050610dcd81611588565b92915050565b600081359050610de28161159f565b92915050565b600081519050610df78161159f565b92915050565b600060208284031215610e0f57600080fd5b6000610e1d84828501610cac565b91505092915050565b600080600080600060608688031215610e3e57600080fd5b6000610e4c88828901610cac565b955050602086013567ffffffffffffffff811115610e6957600080fd5b610e7588828901610cd6565b9450945050604086013567ffffffffffffffff811115610e9457600080fd5b610ea088828901610d4a565b92509250509295509295909350565b60008060408385031215610ec257600080fd5b600083013567ffffffffffffffff811115610edc57600080fd5b610ee885828601610d20565b925050602083013567ffffffffffffffff811115610f0557600080fd5b610f1185828601610d94565b9150509250929050565b600060208284031215610f2d57600080fd5b6000610f3b84828501610dbe565b91505092915050565b600060208284031215610f5657600080fd5b6000610f6484828501610de8565b91505092915050565b610f7681611348565b82525050565b610f8581611300565b82525050565b610f94816112ee565b82525050565b6000610fa7602683611287565b9150610fb282611467565b604082019050919050565b6000610fca601e83611287565b9150610fd5826114b6565b602082019050919050565b6000610fed601183611287565b9150610ff8826114df565b602082019050919050565b6000611010600f83611287565b915061101b82611508565b602082019050919050565b6000611033602083611287565b915061103e82611531565b602082019050919050565b6110528161133e565b82525050565b600060208201905061106d6000830184610f8b565b92915050565b60006020820190506110886000830184610f7c565b92915050565b60006040820190506110a36000830185610f8b565b6110b06020830184610f8b565b9392505050565b60006060820190506110cc6000830186610f8b565b6110d96020830185610f6d565b6110e66040830184611049565b949350505050565b60006080820190506111036000830187610f8b565b6111106020830186610f8b565b61111d6040830185610f8b565b61112a6060830184611049565b95945050505050565b60006060820190506111486000830186610f8b565b6111556020830185610f8b565b6111626040830184611049565b949350505050565b6000602082019050818103600083015261118381610f9a565b9050919050565b600060208201905081810360008301526111a381610fbd565b9050919050565b600060208201905081810360008301526111c381610fe0565b9050919050565b600060208201905081810360008301526111e381611003565b9050919050565b6000602082019050818103600083015261120381611026565b9050919050565b6000611214611225565b9050611220828261137e565b919050565b6000604051905090565b600067ffffffffffffffff82111561124a57611249611427565b5b602082029050602081019050919050565b600067ffffffffffffffff82111561127657611275611427565b5b602082029050602081019050919050565b600082825260208201905092915050565b60006112a38261133e565b91506112ae8361133e565b9250827fffffffffffffffffffffffffffffffffffffffffffffffffffffffffffffffff038211156112e3576112e26113f8565b5b828201905092915050565b60006112f98261131e565b9050919050565b600061130b8261131e565b9050919050565b60008115159050919050565b600073ffffffffffffffffffffffffffffffffffffffff82169050919050565b6000819050919050565b60006113538261135a565b9050919050565b60006113658261136c565b9050919050565b60006113778261131e565b9050919050565b61138782611456565b810181811067ffffffffffffffff821117156113a6576113a5611427565b5b80604052505050565b60006113ba8261133e565b91507fffffffffffffffffffffffffffffffffffffffffffffffffffffffffffffffff8214156113ed576113ec6113f8565b5b600182019050919050565b7f4e487b7100000000000000000000000000000000000000000000000000000000600052601160045260246000fd5b7f4e487b7100000000000000000000000000000000000000000000000000000000600052604160045260246000fd5b6000601f19601f8301169050919050565b7f4f776e61626c653a206e6577206f776e657220697320746865207a65726f206160008201527f6464726573730000000000000000000000000000000000000000000000000000602082015250565b7f526563697069656e7420616e6420416d6f756e7473206d69736d617463680000600082015250565b7f4e6f7420656e6f75676820636861726765000000000000000000000000000000600082015250565b7f4e6f7420656e6f7567682066756e640000000000000000000000000000000000600082015250565b7f4f776e61626c653a2063616c6c6572206973206e6f7420746865206f776e6572600082015250565b611563816112ee565b811461156e57600080fd5b50565b61157a81611300565b811461158557600080fd5b50565b61159181611312565b811461159c57600080fd5b50565b6115a88161133e565b81146115b357600080fd5b5056fea26469706673582212202aaef84ad0fbebcd745b195e629d35dad6888429f87832d8047465fdd491221064736f6c63430008040033",
  "linkReferences": {},
  "deployedLinkReferences": {}
}